:0400000053EF00F0CA
:10000800128277A00AEF00F00CEF00F02CEF00F05E
:1000180076A011EF00F013EF00F02CEF00F07790CE
:1000280066CF06F067CF07F068CF08F069CF09F010
:100038006ACF0AF06BCF0BF06CCF0CF06DCF0DF0E0
:1000480065CF05F061CF01F06250E00B026E609E53
:10005800F2AA31EF00F033EF00F051EF00F0F2A414
:1000680038EF00F03AEF00F051EF00F00E4A0F2A97
:10007800F50E0E5C010E0F58D8A045EF00F047EFC3
:1000880000F04CEF00F08A7E000E0F6E000E0E6E30
:10009800C10ED76E7F0ED66EF29412921100ADEF9C
:1000A80001F07680F28EF28C94909492939C939EB9
:1000B8008B808B828A8C8A8ED59ED59CD59AD58E3C
:1000C800F28A62EC01F00150106E116AD890103675
:1000D8001136D89010361136D8901036113610C017
:1000E80003F011C004F002C010F0050E116ED89094
:1000F8001032112E7BEF00F003501010036E0450E5
:10010800046EFE0E03180410D8A48DEF00F08FEFD4
:1001180000F0D7EF00F0A50E0618D8A496EF00F06F
:1001280098EF00F0D7EF00F0FC0E0718D8A49FEF67
:1001380000F0A1EF00F0D7EF00F0D00E0818D8A417
:10014800A8EF00F0AAEF00F0D7EF00F0DD0E0918D5
:10015800D8A4B1EF00F0B3EF00F0D7EF00F0FC0E39
:100168000A18D8A4BAEF00F0BCEF00F0D7EF00F0FF
:10017800FD0E0B18D8A4C3EF00F0C5EF00F0D7EFC1
:1001880000F0BD0E0C18D8A4CCEF00F0CEEF00F0B4
:10019800D7EF00F00D50D8A4D4EF00F0D6EF00F060
:1001A800D7EF00F08B92300E031806E10404D8A4B0
:1001B800E0EF00F0E2EF00F00EEF01F0450E061858
:1001C800D8A4E9EF00F0EBEF00F00EEF01F0F10E2C
:1001D8000718D8A4F2EF00F0F4EF00F00EEF01F0EA
:1001E800FC0E0818D8A4FBEF00F0FDEF00F00EEFAE
:1001F80001F00928D8A403EF01F005EF01F00EEF94
:1002080001F00A28D8A40BEF01F00DEF01F00EEF72
:1002180001F08B90420E03180410D8A416EF01F0D9
:1002280018EF01F067EF00F00650D8A41EEF01F0B8
:1002380020EF01F067EF00F00750D8A426EF01F097
:1002480028EF01F067EF00F0080E0818D8A42FEF88
:1002580001F031EF01F067EF00F00950D8A437EF53
:1002680001F039EF01F067EF00F0030E0A18D8A487
:1002780040EF01F042EF01F067EF00F06E0E0B184F
:10028800D8A449EF01F04BEF01F067EF00F0850EBD
:100298000C18D8A452EF01F054EF01F067EF00F00A
:1002A800F40E0D18D8A45BEF01F05DEF01F067EFD5
:1002B80000F08A9C67EF00F053EF00F09394938668
:1002C8006F501F0B80096F6E6E50E00B800AD8A428
:1002D80070EF01F072EF01F068EF01F0000E726E3E
:1002E800000E0E01FA6F000EFB6F000EF86F000E85
:1002F800F96F000EFE6F000EFF6F000EFC6F000E10
:10030800FD6F000EE26F000EE36F000EE06F000E4F
:10031800E16F000EE66F000EE76F000EE46F000E4F
:10032800E56F010E436F980E446F010E456F3F0E47
:1003380072166F501F0B60096F6E6E38E832070B2C
:10034800030AD8A4AAEF01F0ACEF01F0A1EF01F085
:10035800120000EE01F00F0EEE6AE806FDE11290C1
:080368001292000155EF00F0B4
:020000040020DA
:08000000FFFFFFFFFFFFFFFF00
:020000040030CA
:0E0000001DD37E7FFF8991FF0FC00FE00F40E0
:00000001FF
