:0400000053EF00F0CA
:10000800128277A00AEF00F00CEF00F02CEF00F05E
:1000180076A011EF00F013EF00F02CEF00F07790CE
:1000280066CF06F067CF07F068CF08F069CF09F010
:100038006ACF0AF06BCF0BF06CCF0CF06DCF0DF0E0
:1000480065CF05F061CF01F06250E00B026E609E53
:10005800F2AA31EF00F033EF00F051EF00F0F2A414
:1000680038EF00F03AEF00F051EF00F00E4A0F2A97
:10007800F50E0E5C010E0F58D8A045EF00F047EFC3
:1000880000F04CEF00F08A7E000E0F6E000E0E6E30
:10009800F80ED76E2F0ED66EF2941292110003EF5F
:1000A80001F07680F28EF28C949094929484939CD2
:1000B800939E8B808B828A8C8A8ED59ED59CD59A6E
:1000C800D58EF28AB8EC00F00150106E116AD89003
:1000D80010361136D89010361136D89010361136A1
:1000E80010C003F011C004F002C010F0050E116E2C
:1000F800D8901032112E7CEF00F003501010036ED0
:100108000450046E2F0E031806E10404D8A48FEFE0
:1001180000F091EF00F09DEF00F009C010F0D00E54
:100128001016D8B49AEF00F09CEF00F09DEF00F0A5
:100138008B922F0E031806E10404D8A4A6EF00F052
:10014800A8EF00F068EF00F00CC010F0030E1016D6
:10015800D8B4B1EF00F0B3EF00F068EF00F08B9087
:1001680068EF00F053EF00F0939493866F501F0BE5
:1001780080096F6E6E50E00B800AD8A4C6EF00F0BD
:10018800C8EF00F0BEEF00F0000E726E000E0E0118
:10019800FA6F000EFB6F000EF86F000EF96F000E7D
:1001A800FE6F000EFF6F000EFC6F000EFD6F000E5D
:1001B800E26F000EE36F000EE06F000EE16F000EBD
:1001C800E66F000EE76F000EE46F000EE56F010E9C
:1001D800436F980E446F010E456F3F0E72166F50B5
:1001E8001F0B60096F6E6E38E832070B030AD8A43C
:1001F80000EF01F002EF01F0F7EF00F0120000EE5F
:1002080001F00F0EEE6AE806FDE11290129200016D
:0402180055EF00F0AE
:020000040020DA
:08000000FFFFFFFFFFFFFFFF00
:020000040030CA
:0E0000001DD37E7FFF8991FF0FC00FE00F40E0
:00000001FF
