:04000000A7EF00F076
:100008001B8277A00AEF00F00CEF00F02EEF00F053
:1000180076A011EF00F013EF00F02EEF00F07790CC
:1000280066CF06F067CF07F068CF08F069CF09F010
:100038006ACF0AF06BCF0BF06CCF0CF06DCF0DF0E0
:1000480065CF05F061CF01F06250E00B026E010E42
:10005800186E609EF2AA33EF00F035EF00F0A5EFBE
:1000680000F0F2A43AEF00F03CEF00F0A5EF00F04A
:10007800164A172AF50E165C010E1758D8A047EF36
:1000880000F049EF00F04EEF00F08A7E000E176E88
:10009800000E166E14501510D8B455EF00F057EF37
:1000A80000F068EF00F01406D8A0150614501510DB
:1000B800D8A461EF00F063EF00F068EF00F0010EE4
:1000C800136EF40E126E8A8812501310D8B46FEFA4
:1000D80000F071EF00F074EF00F01206D8A01306DC
:1000E8000E500F10D8B47BEF00F07DEF00F08AEFD0
:1000F80000F00E06D8A00F060E500F10D8A487EFF8
:1001080000F089EF00F08AEF00F08A8C105011108F
:10011800D8B491EF00F093EF00F0A0EF00F01006D4
:10012800D8A0110610501110D8A49DEF00F09FEF31
:1001380000F0A0EF00F08A8AF80ED76E2F0ED66E68
:10014800F2941B9211007BEF01F07680F28EF28C14
:10015800939E939C9484939A93988A8E8A8C8A8A85
:100168008A88D59ED59CD59AD58EF28A30EC01F036
:100178000150196E1A6AD89019361A36D89019365D
:100188001A36D89019361A3619C003F01AC004F076
:1001980002C019F0050E1A6ED89019321A2ED0EF37
:1001A80000F003501910036E0450046E1850D8B4B0
:1001B800E0EF00F0E2EF00F0F8EF00F01250142446
:1001C800196E135015201A6E19501A10D8A4EFEF93
:1001D80000F0F1EF00F0F6EF00F08A98010E156ECE
:1001E800F40E146E000E186E2F0E031806E10404A8
:1001F800D8A401EF01F003EF01F012EF01F009506C
:10020800F00BD00AD8A40BEF01F00DEF01F012EFBC
:1002180001F08A9A030E116EE80E106E2F0E031865
:1002280006E10404D8A41BEF01F01DEF01F0BCEFB8
:1002380000F00C500F0B030AD8A425EF01F027EFAC
:1002480001F0BCEF00F08A9C030E0F6EE80E0E6EF4
:10025800BCEF00F0A7EF00F0939493866F501F0B4C
:1002680080096F6E6E50E00B800AD8A43EEF01F053
:1002780040EF01F036EF01F0000E726E000E0E0135
:10028800FA6F000EFB6F000EF86F000EF96F000E8C
:10029800FE6F000EFF6F000EFC6F000EFD6F000E6C
:1002A800E26F000EE36F000EE06F000EE16F000ECC
:1002B800E66F000EE76F000EE46F000EE56F010EAB
:1002C800436F980E446F010E456F3F0E72166F50C4
:1002D8001F0B60096F6E6E38E832070B030AD8A44B
:1002E80078EF01F07AEF01F06FEF01F0120000EE05
:1002F80001F0180EEE6AE806FDE11B901B92000162
:04030800A9EF00F069
:020000040020DA
:08000000FFFFFFFFFFFFFFFF00
:020000040030CA
:0E00000015D37E7FFF8991FF0FC00FE00F40E8
:00000001FF
