:040000007BEF00F0A2
:10000800178277A00AEF00F00CEF00F02EEF00F057
:1000180076A011EF00F013EF00F02EEF00F07790CC
:1000280066CF06F067CF07F068CF08F069CF09F010
:100038006ACF0AF06BCF0BF06CCF0CF06DCF0DF0E0
:1000480065CF05F061CF01F06250E00B026E010E42
:10005800146E609EF2AA33EF00F035EF00F079EFEE
:1000680000F0F2A43AEF00F03CEF00F079EF00F076
:10007800124A132AF50E125C010E1358D8A047EF46
:1000880000F049EF00F04EEF00F08A7E000E136E8C
:10009800000E126E10501110D8B455EF00F057EF43
:1000A80000F068EF00F01006D8A0110610501110EB
:1000B800D8A461EF00F063EF00F068EF00F0010EE4
:1000C8000F6EF40E0E6E8A8A0E500F10D8B46FEFB2
:1000D80000F071EF00F074EF00F00E06D8A00F06E4
:1000E800F80ED76E2F0ED66EF2941792110047EFC6
:1000F80001F07680F28EF28C939E939C9484939A6E
:1001080093988A8E8A8C8A8A8A88D59ED59CD59A15
:10011800D58EF28AFCEC00F00150156E166AD89064
:1001280015361636D89015361636D8901536163632
:1001380015C003F016C004F002C015F0050E166EC7
:10014800D8901532162EA4EF00F003501510036E48
:100158000450046E1450D8B4B4EF00F0B6EF00F0B9
:10016800CCEF00F00E501024156E0F501120166EB3
:1001780015501610D8A4C3EF00F0C5EF00F0CAEF71
:1001880000F08A9A010E116EF40E106E000E146EB5
:100198002F0E031806E10404D8A4D5EF00F0D7EF1A
:1001A80000F0E2EF00F00950F00BD00AD8A4DFEF1E
:1001B80000F0E1EF00F0E2EF00F08A9A2F0E03184A
:1001C80006E10404D8A4EBEF00F0EDEF00F090EFA7
:1001D80000F00C500F0B030AD8A4F5EF00F0F7EF6E
:1001E80000F090EF00F08A9890EF00F07BEF00F0BD
:1001F800939493866F501F0B80096F6E6E50E00BBF
:10020800800AD8A40AEF01F00CEF01F002EF01F028
:10021800000E726E000E0E01FA6F000EFB6F000EDC
:10022800F86F000EF96F000EFE6F000EFF6F000EE4
:10023800FC6F000EFD6F000EE26F000EE36F000E04
:10024800E06F000EE16F000EE66F000EE76F000E24
:10025800E46F000EE56F010E436F980E446F010EB8
:10026800456F3F0E72166F501F0B60096F6E6E3828
:10027800E832070B030AD8A444EF01F046EF01F077
:100288003BEF01F0120000EE01F0140EEE6AE806F2
:0C029800FDE11790179200017DEF00F0CF
:020000040020DA
:08000000FFFFFFFFFFFFFFFF00
:020000040030CA
:0E00000015D37E7FFF8991FF0FC00FE00F40E8
:00000001FF
